{
  "_format": "hh-sol-artifact-1",
  "contractName": "Create",
  "sourceName": "contracts/VotingContract.sol",
  "abi": [
    {
      "inputs": [],
      "stateMutability": "nonpayable",
      "type": "constructor"
    },
    {
      "anonymous": false,
      "inputs": [
        {
          "indexed": true,
          "internalType": "uint256",
          "name": "candidateId",
          "type": "uint256"
        },
        {
          "indexed": false,
          "internalType": "string",
          "name": "age",
          "type": "string"
        },
        {
          "indexed": false,
          "internalType": "string",
          "name": "name",
          "type": "string"
        },
        {
          "indexed": false,
          "internalType": "string",
          "name": "image",
          "type": "string"
        },
        {
          "indexed": false,
          "internalType": "uint256",
          "name": "voteCount",
          "type": "uint256"
        },
        {
          "indexed": false,
          "internalType": "address",
          "name": "_address",
          "type": "address"
        },
        {
          "indexed": false,
          "internalType": "string",
          "name": "ipfs",
          "type": "string"
        }
      ],
      "name": "CandidateCreate",
      "type": "event"
    },
    {
      "anonymous": false,
      "inputs": [
        {
          "indexed": true,
          "internalType": "uint256",
          "name": "voter_voterId",
          "type": "uint256"
        },
        {
          "indexed": false,
          "internalType": "string",
          "name": "voter_name",
          "type": "string"
        },
        {
          "indexed": false,
          "internalType": "string",
          "name": "voter_image",
          "type": "string"
        },
        {
          "indexed": false,
          "internalType": "address",
          "name": "voter_address",
          "type": "address"
        },
        {
          "indexed": false,
          "internalType": "uint256",
          "name": "voter_allowed",
          "type": "uint256"
        },
        {
          "indexed": false,
          "internalType": "bool",
          "name": "voter_voted",
          "type": "bool"
        },
        {
          "indexed": false,
          "internalType": "uint256",
          "name": "voter_vote",
          "type": "uint256"
        },
        {
          "indexed": false,
          "internalType": "string",
          "name": "voter_ipfs",
          "type": "string"
        }
      ],
      "name": "VoterCreated",
      "type": "event"
    },
    {
      "inputs": [],
      "name": "_candidateId",
      "outputs": [
        {
          "internalType": "uint256",
          "name": "_value",
          "type": "uint256"
        }
      ],
      "stateMutability": "view",
      "type": "function"
    },
    {
      "inputs": [],
      "name": "_voterId",
      "outputs": [
        {
          "internalType": "uint256",
          "name": "_value",
          "type": "uint256"
        }
      ],
      "stateMutability": "view",
      "type": "function"
    },
    {
      "inputs": [
        {
          "internalType": "uint256",
          "name": "",
          "type": "uint256"
        }
      ],
      "name": "candidateAddress",
      "outputs": [
        {
          "internalType": "address",
          "name": "",
          "type": "address"
        }
      ],
      "stateMutability": "view",
      "type": "function"
    },
    {
      "inputs": [
        {
          "internalType": "address",
          "name": "",
          "type": "address"
        }
      ],
      "name": "candidates",
      "outputs": [
        {
          "internalType": "uint256",
          "name": "candidateId",
          "type": "uint256"
        },
        {
          "internalType": "string",
          "name": "age",
          "type": "string"
        },
        {
          "internalType": "string",
          "name": "name",
          "type": "string"
        },
        {
          "internalType": "string",
          "name": "image",
          "type": "string"
        },
        {
          "internalType": "uint256",
          "name": "voteCount",
          "type": "uint256"
        },
        {
          "internalType": "address",
          "name": "_address",
          "type": "address"
        },
        {
          "internalType": "string",
          "name": "ipfs",
          "type": "string"
        }
      ],
      "stateMutability": "view",
      "type": "function"
    },
    {
      "inputs": [],
      "name": "getCandidate",
      "outputs": [
        {
          "internalType": "address[]",
          "name": "",
          "type": "address[]"
        }
      ],
      "stateMutability": "view",
      "type": "function"
    },
    {
      "inputs": [],
      "name": "getCandidateLength",
      "outputs": [
        {
          "internalType": "uint256",
          "name": "",
          "type": "uint256"
        }
      ],
      "stateMutability": "view",
      "type": "function"
    },
    {
      "inputs": [
        {
          "internalType": "address",
          "name": "_address",
          "type": "address"
        }
      ],
      "name": "getCandidatedata",
      "outputs": [
        {
          "internalType": "string",
          "name": "",
          "type": "string"
        },
        {
          "internalType": "string",
          "name": "",
          "type": "string"
        },
        {
          "internalType": "uint256",
          "name": "",
          "type": "uint256"
        },
        {
          "internalType": "string",
          "name": "",
          "type": "string"
        },
        {
          "internalType": "uint256",
          "name": "",
          "type": "uint256"
        },
        {
          "internalType": "string",
          "name": "",
          "type": "string"
        },
        {
          "internalType": "address",
          "name": "",
          "type": "address"
        }
      ],
      "stateMutability": "view",
      "type": "function"
    },
    {
      "inputs": [],
      "name": "getVotedVoterList",
      "outputs": [
        {
          "internalType": "address[]",
          "name": "",
          "type": "address[]"
        }
      ],
      "stateMutability": "view",
      "type": "function"
    },
    {
      "inputs": [],
      "name": "getVoterLength",
      "outputs": [
        {
          "internalType": "uint256",
          "name": "",
          "type": "uint256"
        }
      ],
      "stateMutability": "view",
      "type": "function"
    },
    {
      "inputs": [],
      "name": "getVoterList",
      "outputs": [
        {
          "internalType": "address[]",
          "name": "",
          "type": "address[]"
        }
      ],
      "stateMutability": "view",
      "type": "function"
    },
    {
      "inputs": [
        {
          "internalType": "address",
          "name": "_address",
          "type": "address"
        }
      ],
      "name": "getVoterdata",
      "outputs": [
        {
          "internalType": "uint256",
          "name": "",
          "type": "uint256"
        },
        {
          "internalType": "string",
          "name": "",
          "type": "string"
        },
        {
          "internalType": "string",
          "name": "",
          "type": "string"
        },
        {
          "internalType": "address",
          "name": "",
          "type": "address"
        },
        {
          "internalType": "string",
          "name": "",
          "type": "string"
        },
        {
          "internalType": "uint256",
          "name": "",
          "type": "uint256"
        },
        {
          "internalType": "bool",
          "name": "",
          "type": "bool"
        }
      ],
      "stateMutability": "view",
      "type": "function"
    },
    {
      "inputs": [
        {
          "internalType": "address",
          "name": "_address",
          "type": "address"
        },
        {
          "internalType": "string",
          "name": "_age",
          "type": "string"
        },
        {
          "internalType": "string",
          "name": "_name",
          "type": "string"
        },
        {
          "internalType": "string",
          "name": "_image",
          "type": "string"
        },
        {
          "internalType": "string",
          "name": "_ipfs",
          "type": "string"
        }
      ],
      "name": "setCandidate",
      "outputs": [],
      "stateMutability": "nonpayable",
      "type": "function"
    },
    {
      "inputs": [
        {
          "internalType": "address",
          "name": "_candidateAddress",
          "type": "address"
        },
        {
          "internalType": "uint256",
          "name": "_candidateVoteId",
          "type": "uint256"
        }
      ],
      "name": "vote",
      "outputs": [],
      "stateMutability": "nonpayable",
      "type": "function"
    },
    {
      "inputs": [
        {
          "internalType": "uint256",
          "name": "",
          "type": "uint256"
        }
      ],
      "name": "votedVoters",
      "outputs": [
        {
          "internalType": "address",
          "name": "",
          "type": "address"
        }
      ],
      "stateMutability": "view",
      "type": "function"
    },
    {
      "inputs": [
        {
          "internalType": "address",
          "name": "_address",
          "type": "address"
        },
        {
          "internalType": "string",
          "name": "_name",
          "type": "string"
        },
        {
          "internalType": "string",
          "name": "_image",
          "type": "string"
        },
        {
          "internalType": "string",
          "name": "_ipfs",
          "type": "string"
        }
      ],
      "name": "voterRight",
      "outputs": [],
      "stateMutability": "nonpayable",
      "type": "function"
    },
    {
      "inputs": [
        {
          "internalType": "address",
          "name": "",
          "type": "address"
        }
      ],
      "name": "voters",
      "outputs": [
        {
          "internalType": "uint256",
          "name": "voter_voterId",
          "type": "uint256"
        },
        {
          "internalType": "string",
          "name": "voter_name",
          "type": "string"
        },
        {
          "internalType": "string",
          "name": "voter_image",
          "type": "string"
        },
        {
          "internalType": "address",
          "name": "voter_address",
          "type": "address"
        },
        {
          "internalType": "uint256",
          "name": "voter_allowed",
          "type": "uint256"
        },
        {
          "internalType": "bool",
          "name": "voter_voted",
          "type": "bool"
        },
        {
          "internalType": "uint256",
          "name": "voter_vote",
          "type": "uint256"
        },
        {
          "internalType": "string",
          "name": "voter_ipfs",
          "type": "string"
        }
      ],
      "stateMutability": "view",
      "type": "function"
    },
    {
      "inputs": [
        {
          "internalType": "uint256",
          "name": "",
          "type": "uint256"
        }
      ],
      "name": "votersAddress",
      "outputs": [
        {
          "internalType": "address",
          "name": "",
          "type": "address"
        }
      ],
      "stateMutability": "view",
      "type": "function"
    },
    {
      "inputs": [],
      "name": "votingOrganizer",
      "outputs": [
        {
          "internalType": "address",
          "name": "",
          "type": "address"
        }
      ],
      "stateMutability": "view",
      "type": "function"
    }
  ],
  "bytecode": "0x608060405234801561001057600080fd5b5033600260006101000a81548173ffffffffffffffffffffffffffffffffffffffff021916908373ffffffffffffffffffffffffffffffffffffffff1602179055506126bd806100616000396000f3fe608060405234801561001057600080fd5b50600436106101165760003560e01c80638e945685116100a2578063b63c82ca11610071578063b63c82ca14610304578063b9be31521461033a578063c5036fd414610358578063c91ec7121461038e578063f7522a83146103aa57610116565b80638e94568514610273578063a3ec138d14610291578063a7388967146102c8578063b28d92ae146102e657610116565b80635cc48aa7116100e95780635cc48aa7146101b55780635f74bbde146101d357806370218b85146101ef5780637831ffb31461020d5780638ab66a901461023d57610116565b80630361419e1461011b57806305ad45a4146101375780633a88251a1461015557806343242daa14610185575b600080fd5b61013560048036038101906101309190611c50565b6103c8565b005b61013f610655565b60405161014c9190611d24565b60405180910390f35b61016f600480360381019061016a9190611d6b565b610662565b60405161017c9190611da7565b60405180910390f35b61019f600480360381019061019a9190611d6b565b6106a1565b6040516101ac9190611da7565b60405180910390f35b6101bd6106e0565b6040516101ca9190611da7565b60405180910390f35b6101ed60048036038101906101e89190611dc2565b610706565b005b6101f76108ce565b6040516102049190611ec0565b60405180910390f35b61022760048036038101906102229190611d6b565b61095c565b6040516102349190611da7565b60405180910390f35b61025760048036038101906102529190611ee2565b61099b565b60405161026a9796959493929190611f97565b60405180910390f35b61027b610c1d565b6040516102889190611ec0565b60405180910390f35b6102ab60048036038101906102a69190611ee2565b610cab565b6040516102bf98979695949392919061203d565b60405180910390f35b6102d0610eb8565b6040516102dd9190611d24565b60405180910390f35b6102ee610ec4565b6040516102fb9190611ec0565b60405180910390f35b61031e60048036038101906103199190611ee2565b610f52565b60405161033197969594939291906120d0565b60405180910390f35b610342611399565b60405161034f9190611d24565b60405180910390f35b610372600480360381019061036d9190611ee2565b6113a5565b604051610385979695949392919061215b565b60405180910390f35b6103a860048036038101906103a391906121df565b61176d565b005b6103b26119c4565b6040516103bf9190611d24565b60405180910390f35b3373ffffffffffffffffffffffffffffffffffffffff16600260009054906101000a900473ffffffffffffffffffffffffffffffffffffffff1673ffffffffffffffffffffffffffffffffffffffff1614610458576040517f08c379a000000000000000000000000000000000000000000000000000000000815260040161044f90612316565b60405180910390fd5b61046260006119d1565b600061046e60006119e7565b90506000600760008773ffffffffffffffffffffffffffffffffffffffff1673ffffffffffffffffffffffffffffffffffffffff168152602001908152602001600020905060008160040154146104c457600080fd5b60018160040181905550848160010190805190602001906104e69291906119f5565b50838160020190805190602001906104ff9291906119f5565b50858160030160006101000a81548173ffffffffffffffffffffffffffffffffffffffff021916908373ffffffffffffffffffffffffffffffffffffffff1602179055508181600001819055506103e8816006018190555060008160050160006101000a81548160ff0219169083151502179055508281600701908051906020019061058c9291906119f5565b506006869080600181540180825580915050600190039060005260206000200160009091909190916101000a81548173ffffffffffffffffffffffffffffffffffffffff021916908373ffffffffffffffffffffffffffffffffffffffff160217905550817ff5f39971dd62d9929e3a9feaa6bb77fe7c7da0001babff8a65a7e51ad0201c1986868985600401548660050160009054906101000a900460ff1687600601548a6040516106459796959493929190612336565b60405180910390a2505050505050565b6000600680549050905090565b6003818154811061067257600080fd5b906000526020600020016000915054906101000a900473ffffffffffffffffffffffffffffffffffffffff1681565b600681815481106106b157600080fd5b906000526020600020016000915054906101000a900473ffffffffffffffffffffffffffffffffffffffff1681565b600260009054906101000a900473ffffffffffffffffffffffffffffffffffffffff1681565b6000600760003373ffffffffffffffffffffffffffffffffffffffff1673ffffffffffffffffffffffffffffffffffffffff16815260200190815260200160002090508060050160009054906101000a900460ff161561079b576040517f08c379a000000000000000000000000000000000000000000000000000000000815260040161079290612406565b60405180910390fd5b6000816004015414156107e3576040517f08c379a00000000000000000000000000000000000000000000000000000000081526004016107da90612472565b60405180910390fd5b60018160050160006101000a81548160ff0219169083151502179055508181600601819055506005339080600181540180825580915050600190039060005260206000200160009091909190916101000a81548173ffffffffffffffffffffffffffffffffffffffff021916908373ffffffffffffffffffffffffffffffffffffffff1602179055508060040154600460008573ffffffffffffffffffffffffffffffffffffffff1673ffffffffffffffffffffffffffffffffffffffff16815260200190815260200160002060040160008282546108c291906124c1565b92505081905550505050565b6060600380548060200260200160405190810160405280929190818152602001828054801561095257602002820191906000526020600020905b8160009054906101000a900473ffffffffffffffffffffffffffffffffffffffff1673ffffffffffffffffffffffffffffffffffffffff1681526020019060010190808311610908575b5050505050905090565b6005818154811061096c57600080fd5b906000526020600020016000915054906101000a900473ffffffffffffffffffffffffffffffffffffffff1681565b60046020528060005260406000206000915090508060000154908060010180546109c490612546565b80601f01602080910402602001604051908101604052809291908181526020018280546109f090612546565b8015610a3d5780601f10610a1257610100808354040283529160200191610a3d565b820191906000526020600020905b815481529060010190602001808311610a2057829003601f168201915b505050505090806002018054610a5290612546565b80601f0160208091040260200160405190810160405280929190818152602001828054610a7e90612546565b8015610acb5780601f10610aa057610100808354040283529160200191610acb565b820191906000526020600020905b815481529060010190602001808311610aae57829003601f168201915b505050505090806003018054610ae090612546565b80601f0160208091040260200160405190810160405280929190818152602001828054610b0c90612546565b8015610b595780601f10610b2e57610100808354040283529160200191610b59565b820191906000526020600020905b815481529060010190602001808311610b3c57829003601f168201915b5050505050908060040154908060050160009054906101000a900473ffffffffffffffffffffffffffffffffffffffff1690806006018054610b9a90612546565b80601f0160208091040260200160405190810160405280929190818152602001828054610bc690612546565b8015610c135780601f10610be857610100808354040283529160200191610c13565b820191906000526020600020905b815481529060010190602001808311610bf657829003601f168201915b5050505050905087565b60606005805480602002602001604051908101604052809291908181526020018280548015610ca157602002820191906000526020600020905b8160009054906101000a900473ffffffffffffffffffffffffffffffffffffffff1673ffffffffffffffffffffffffffffffffffffffff1681526020019060010190808311610c57575b5050505050905090565b6007602052806000526040600020600091509050806000015490806001018054610cd490612546565b80601f0160208091040260200160405190810160405280929190818152602001828054610d0090612546565b8015610d4d5780601f10610d2257610100808354040283529160200191610d4d565b820191906000526020600020905b815481529060010190602001808311610d3057829003601f168201915b505050505090806002018054610d6290612546565b80601f0160208091040260200160405190810160405280929190818152602001828054610d8e90612546565b8015610ddb5780601f10610db057610100808354040283529160200191610ddb565b820191906000526020600020905b815481529060010190602001808311610dbe57829003601f168201915b5050505050908060030160009054906101000a900473ffffffffffffffffffffffffffffffffffffffff16908060040154908060050160009054906101000a900460ff1690806006015490806007018054610e3590612546565b80601f0160208091040260200160405190810160405280929190818152602001828054610e6190612546565b8015610eae5780601f10610e8357610100808354040283529160200191610eae565b820191906000526020600020905b815481529060010190602001808311610e9157829003601f168201915b5050505050905088565b60018060000154905081565b60606006805480602002602001604051908101604052809291908181526020018280548015610f4857602002820191906000526020600020905b8160009054906101000a900473ffffffffffffffffffffffffffffffffffffffff1673ffffffffffffffffffffffffffffffffffffffff1681526020019060010190808311610efe575b5050505050905090565b60608060006060600060606000600460008973ffffffffffffffffffffffffffffffffffffffff1673ffffffffffffffffffffffffffffffffffffffff168152602001908152602001600020600101600460008a73ffffffffffffffffffffffffffffffffffffffff1673ffffffffffffffffffffffffffffffffffffffff168152602001908152602001600020600201600460008b73ffffffffffffffffffffffffffffffffffffffff1673ffffffffffffffffffffffffffffffffffffffff16815260200190815260200160002060000154600460008c73ffffffffffffffffffffffffffffffffffffffff1673ffffffffffffffffffffffffffffffffffffffff168152602001908152602001600020600301600460008d73ffffffffffffffffffffffffffffffffffffffff1673ffffffffffffffffffffffffffffffffffffffff16815260200190815260200160002060040154600460008e73ffffffffffffffffffffffffffffffffffffffff1673ffffffffffffffffffffffffffffffffffffffff168152602001908152602001600020600601600460008f73ffffffffffffffffffffffffffffffffffffffff1673ffffffffffffffffffffffffffffffffffffffff16815260200190815260200160002060050160009054906101000a900473ffffffffffffffffffffffffffffffffffffffff1686805461115c90612546565b80601f016020809104026020016040519081016040528092919081815260200182805461118890612546565b80156111d55780601f106111aa576101008083540402835291602001916111d5565b820191906000526020600020905b8154815290600101906020018083116111b857829003601f168201915b505050505096508580546111e890612546565b80601f016020809104026020016040519081016040528092919081815260200182805461121490612546565b80156112615780601f1061123657610100808354040283529160200191611261565b820191906000526020600020905b81548152906001019060200180831161124457829003601f168201915b5050505050955083805461127490612546565b80601f01602080910402602001604051908101604052809291908181526020018280546112a090612546565b80156112ed5780601f106112c2576101008083540402835291602001916112ed565b820191906000526020600020905b8154815290600101906020018083116112d057829003601f168201915b5050505050935081805461130090612546565b80601f016020809104026020016040519081016040528092919081815260200182805461132c90612546565b80156113795780601f1061134e57610100808354040283529160200191611379565b820191906000526020600020905b81548152906001019060200180831161135c57829003601f168201915b505050505091509650965096509650965096509650919395979092949650565b60008060000154905081565b600060608060006060600080600760008973ffffffffffffffffffffffffffffffffffffffff1673ffffffffffffffffffffffffffffffffffffffff16815260200190815260200160002060000154600760008a73ffffffffffffffffffffffffffffffffffffffff1673ffffffffffffffffffffffffffffffffffffffff168152602001908152602001600020600101600760008b73ffffffffffffffffffffffffffffffffffffffff1673ffffffffffffffffffffffffffffffffffffffff168152602001908152602001600020600201600760008c73ffffffffffffffffffffffffffffffffffffffff1673ffffffffffffffffffffffffffffffffffffffff16815260200190815260200160002060030160009054906101000a900473ffffffffffffffffffffffffffffffffffffffff16600760008d73ffffffffffffffffffffffffffffffffffffffff1673ffffffffffffffffffffffffffffffffffffffff168152602001908152602001600020600701600760008e73ffffffffffffffffffffffffffffffffffffffff1673ffffffffffffffffffffffffffffffffffffffff16815260200190815260200160002060040154600760008f73ffffffffffffffffffffffffffffffffffffffff1673ffffffffffffffffffffffffffffffffffffffff16815260200190815260200160002060050160009054906101000a900460ff168580546115bc90612546565b80601f01602080910402602001604051908101604052809291908181526020018280546115e890612546565b80156116355780601f1061160a57610100808354040283529160200191611635565b820191906000526020600020905b81548152906001019060200180831161161857829003601f168201915b5050505050955084805461164890612546565b80601f016020809104026020016040519081016040528092919081815260200182805461167490612546565b80156116c15780601f10611696576101008083540402835291602001916116c1565b820191906000526020600020905b8154815290600101906020018083116116a457829003601f168201915b505050505094508280546116d490612546565b80601f016020809104026020016040519081016040528092919081815260200182805461170090612546565b801561174d5780601f106117225761010080835404028352916020019161174d565b820191906000526020600020905b81548152906001019060200180831161173057829003601f168201915b505050505092509650965096509650965096509650919395979092949650565b3373ffffffffffffffffffffffffffffffffffffffff16600260009054906101000a900473ffffffffffffffffffffffffffffffffffffffff1673ffffffffffffffffffffffffffffffffffffffff16146117fd576040517f08c379a00000000000000000000000000000000000000000000000000000000081526004016117f4906125ea565b60405180910390fd5b61180760016119d1565b600061181360016119e7565b90506000600460008873ffffffffffffffffffffffffffffffffffffffff1673ffffffffffffffffffffffffffffffffffffffff1681526020019081526020016000209050858160010190805190602001906118709291906119f5565b50818160000181905550838160030190805190602001906118929291906119f5565b50848160020190805190602001906118ab9291906119f5565b5060008160040181905550868160050160006101000a81548173ffffffffffffffffffffffffffffffffffffffff021916908373ffffffffffffffffffffffffffffffffffffffff160217905550828160060190805190602001906119119291906119f5565b506003879080600181540180825580915050600190039060005260206000200160009091909190916101000a81548173ffffffffffffffffffffffffffffffffffffffff021916908373ffffffffffffffffffffffffffffffffffffffff160217905550817fd297f12b256bb8485a6013fb5e302017018123e99a0ebb20756c09e1707b4b9087878785600401548c896040516119b39695949392919061260a565b60405180910390a250505050505050565b6000600380549050905090565b6001816000016000828254019250508190555050565b600081600001549050919050565b828054611a0190612546565b90600052602060002090601f016020900481019282611a235760008555611a6a565b82601f10611a3c57805160ff1916838001178555611a6a565b82800160010185558215611a6a579182015b82811115611a69578251825591602001919060010190611a4e565b5b509050611a779190611a7b565b5090565b5b80821115611a94576000816000905550600101611a7c565b5090565b6000604051905090565b600080fd5b600080fd5b600073ffffffffffffffffffffffffffffffffffffffff82169050919050565b6000611ad782611aac565b9050919050565b611ae781611acc565b8114611af257600080fd5b50565b600081359050611b0481611ade565b92915050565b600080fd5b600080fd5b6000601f19601f8301169050919050565b7f4e487b7100000000000000000000000000000000000000000000000000000000600052604160045260246000fd5b611b5d82611b14565b810181811067ffffffffffffffff82111715611b7c57611b7b611b25565b5b80604052505050565b6000611b8f611a98565b9050611b9b8282611b54565b919050565b600067ffffffffffffffff821115611bbb57611bba611b25565b5b611bc482611b14565b9050602081019050919050565b82818337600083830152505050565b6000611bf3611bee84611ba0565b611b85565b905082815260208101848484011115611c0f57611c0e611b0f565b5b611c1a848285611bd1565b509392505050565b600082601f830112611c3757611c36611b0a565b5b8135611c47848260208601611be0565b91505092915050565b60008060008060808587031215611c6a57611c69611aa2565b5b6000611c7887828801611af5565b945050602085013567ffffffffffffffff811115611c9957611c98611aa7565b5b611ca587828801611c22565b935050604085013567ffffffffffffffff811115611cc657611cc5611aa7565b5b611cd287828801611c22565b925050606085013567ffffffffffffffff811115611cf357611cf2611aa7565b5b611cff87828801611c22565b91505092959194509250565b6000819050919050565b611d1e81611d0b565b82525050565b6000602082019050611d396000830184611d15565b92915050565b611d4881611d0b565b8114611d5357600080fd5b50565b600081359050611d6581611d3f565b92915050565b600060208284031215611d8157611d80611aa2565b5b6000611d8f84828501611d56565b91505092915050565b611da181611acc565b82525050565b6000602082019050611dbc6000830184611d98565b92915050565b60008060408385031215611dd957611dd8611aa2565b5b6000611de785828601611af5565b9250506020611df885828601611d56565b9150509250929050565b600081519050919050565b600082825260208201905092915050565b6000819050602082019050919050565b611e3781611acc565b82525050565b6000611e498383611e2e565b60208301905092915050565b6000602082019050919050565b6000611e6d82611e02565b611e778185611e0d565b9350611e8283611e1e565b8060005b83811015611eb3578151611e9a8882611e3d565b9750611ea583611e55565b925050600181019050611e86565b5085935050505092915050565b60006020820190508181036000830152611eda8184611e62565b905092915050565b600060208284031215611ef857611ef7611aa2565b5b6000611f0684828501611af5565b91505092915050565b600081519050919050565b600082825260208201905092915050565b60005b83811015611f49578082015181840152602081019050611f2e565b83811115611f58576000848401525b50505050565b6000611f6982611f0f565b611f738185611f1a565b9350611f83818560208601611f2b565b611f8c81611b14565b840191505092915050565b600060e082019050611fac600083018a611d15565b8181036020830152611fbe8189611f5e565b90508181036040830152611fd28188611f5e565b90508181036060830152611fe68187611f5e565b9050611ff56080830186611d15565b61200260a0830185611d98565b81810360c08301526120148184611f5e565b905098975050505050505050565b60008115159050919050565b61203781612022565b82525050565b600061010082019050612053600083018b611d15565b8181036020830152612065818a611f5e565b905081810360408301526120798189611f5e565b90506120886060830188611d98565b6120956080830187611d15565b6120a260a083018661202e565b6120af60c0830185611d15565b81810360e08301526120c18184611f5e565b90509998505050505050505050565b600060e08201905081810360008301526120ea818a611f5e565b905081810360208301526120fe8189611f5e565b905061210d6040830188611d15565b818103606083015261211f8187611f5e565b905061212e6080830186611d15565b81810360a08301526121408185611f5e565b905061214f60c0830184611d98565b98975050505050505050565b600060e082019050612170600083018a611d15565b81810360208301526121828189611f5e565b905081810360408301526121968188611f5e565b90506121a56060830187611d98565b81810360808301526121b78186611f5e565b90506121c660a0830185611d15565b6121d360c083018461202e565b98975050505050505050565b600080600080600060a086880312156121fb576121fa611aa2565b5b600061220988828901611af5565b955050602086013567ffffffffffffffff81111561222a57612229611aa7565b5b61223688828901611c22565b945050604086013567ffffffffffffffff81111561225757612256611aa7565b5b61226388828901611c22565b935050606086013567ffffffffffffffff81111561228457612283611aa7565b5b61229088828901611c22565b925050608086013567ffffffffffffffff8111156122b1576122b0611aa7565b5b6122bd88828901611c22565b9150509295509295909350565b7f6f6e6c79206f7267616e697a65722063616e2063726561746500000000000000600082015250565b6000612300601983611f1a565b915061230b826122ca565b602082019050919050565b6000602082019050818103600083015261232f816122f3565b9050919050565b600060e0820190508181036000830152612350818a611f5e565b905081810360208301526123648189611f5e565b90506123736040830188611d98565b6123806060830187611d15565b61238d608083018661202e565b61239a60a0830185611d15565b81810360c08301526123ac8184611f5e565b905098975050505050505050565b7f796f75206861766520616c726561647920766f74656400000000000000000000600082015250565b60006123f0601683611f1a565b91506123fb826123ba565b602082019050919050565b6000602082019050818103600083015261241f816123e3565b9050919050565b7f796f752068617665206e6f7420726967687420746f20766f7465000000000000600082015250565b600061245c601a83611f1a565b915061246782612426565b602082019050919050565b6000602082019050818103600083015261248b8161244f565b9050919050565b7f4e487b7100000000000000000000000000000000000000000000000000000000600052601160045260246000fd5b60006124cc82611d0b565b91506124d783611d0b565b9250827fffffffffffffffffffffffffffffffffffffffffffffffffffffffffffffffff0382111561250c5761250b612492565b5b828201905092915050565b7f4e487b7100000000000000000000000000000000000000000000000000000000600052602260045260246000fd5b6000600282049050600182168061255e57607f821691505b6020821081141561257257612571612517565b5b50919050565b7f6f6e6c79206f7267616e697a65722063616e206372656174652074686520636160008201527f6e64696461746500000000000000000000000000000000000000000000000000602082015250565b60006125d4602783611f1a565b91506125df82612578565b604082019050919050565b60006020820190508181036000830152612603816125c7565b9050919050565b600060c08201905081810360008301526126248189611f5e565b905081810360208301526126388188611f5e565b9050818103604083015261264c8187611f5e565b905061265b6060830186611d15565b6126686080830185611d98565b81810360a083015261267a8184611f5e565b905097965050505050505056fea26469706673582212208acd2326cd2eceb1d8cbc3e68da37f5daa5f440414998ad1e62f50595cac585664736f6c63430008090033",
  "linkReferences": {},
  "deployedLinkReferences": {}
}